:1004C00050617373776F7264005375636365737300
:0604D000004661696C00AA
:0B050F00011C00021A0000021800008E
:10018C001204EC7BFF7A0479C07D017F01120449D3
:10019C001200038F1CE51C60F7D3940A5041C3E591
:1001AC00199404E51894005028AE1AAF1B7C007DFE
:1001BC000A1202788E1A8F1BE51C75F00A84E5F082
:1001CC00251BF51BE4351AF51A0519E519700205FE
:1001DC0018750C04AB1BAA1A7D017F0212048AE568
:1001EC001C640B7038E51BB43D0FE51AB4080A7B90
:1001FC00FF7A0479C97D0A80087BFF7A0479D17D66
:10020C000C7F01120449E4F51AF51BF518F5197564
:10021C000C04AB1BAA1A7D017F0212048AE51C6434
:10022C000C600302019CF51AF51BF518F519750CF9
:0F023C0004AB1BAA1A7D017F0212048A02019CE7
:0A04A700EF1FAC0670011E4C600E42
:0C04B100750902750AEFD50AFDD509FA9D
:0304BD0080E822B2
:06050000C2A58F80D2A706
:080506007F027EEFDEFEDFFC48
:01050E0022CA
:0A051B00C2A6120500C2A7020506E1
:10046C00CFCDCFCECCCE12028A7C007D0A12028A6E
:04047C00ED2430FF3C
:0A048000D2A6120500C2A70205066D
:1004D600AE07BE0104ED148006BE0209ED243F44BA
:0604E60080FF12051B223D
:1004EC007F3812051B7F0C12051B7F0612051B7F24
:0404FC000102051BD9
:0A052500AC031204D6AF04020480F8
:060449008B088A09890AF4
:10044F001204D6E4FDAB08AA09A90A8D82758300B0
:0C045F0012024BFF60061204800D80E9C1
:01046B00226E
:0C0416007F0AEA24FFFDE434FFFC7E00B6
:080422008E0D8F0E8C0F8D1062
:10042A007F017E00E4FBEBC39510E50F6480F8744E
:0E043A008098500AAC0DAD0E1202780B80E8CF
:010448002291
:04048A008A0A8B0B44
:10048E001204D6AA0CEAD39400400D120416AC0A3C
:08049E00AD0B12046C1A80ED95
:0104A6002233
:10036B001204D6C3EA64809480400B7F2B12048066
:10037B008A168B17800E7F2D120480C3E49BF51712
:10038B00E49AF516AA15EAD39400400D120416ACA4
:09039B0016AD1712046C1A80ED76
:0103A4002236
:0403A5008A1F8B2000
:1003A9001204D6AA21EAD3940040297F1012041816
:1003B900AC1FAD20CFCDCFCECCCE12028AEF540FD9
:1003C900FEC3940AEE5004243080022437FF12043D
:0403D900801A80D135
:0103DD0022FD
:0403DE008A248B25BD
:1003E2001204D6AA26EAD394004028EA24FFFDE4A8
:1003F20034FFFC7F027E00120422AC24AD25CFCD57
:10040200CFCECCCE12028AEF54012430FF120480E8
:030412001A80D27B
:0104150022C4
:10000300E4F5087590FFC2932097137F14FE120442
:10001300A73097FD7F147E001204A7750801209670
:10002300147F147E001204A73096FD7F147E001205
:1000330004A77508052095147F147E001204A730C9
:1000430095FD7F147E001204A77508092094147F80
:10005300147E001204A73094FD7F147E001204A7BF
:1000630075080D7590FFC2922097147F147E0012BD
:1000730004A73097FD7F147E001204A775080220A1
:1000830096147F147E001204A73096FD7F147E0021
:100093001204A77508062095147F147E001204A786
:1000A3003095FD7F147E001204A775080A2094146E
:1000B3007F147E001204A73094FD7F147E00120487
:1000C300A775080E7590FFC2912097147F147E00C8
:1000D3001204A73097FD7F147E001204A77508034E
:1000E3002096147F147E001204A73096FD7F147EA1
:1000F300001204A77508072095147F147E001204CC
:10010300A73095FD7F147E001204A775080B209479
:10011300147F147E001204A73094FD7F147E001216
:1001230004A775080F7590FFC2902097147F147E63
:10013300001204A73097FD7F147E001204A77508F0
:10014300042096147F147E001204A73096FD7F14BA
:100153007E001204A77508082095147F147E0012F0
:1001630004A73095FD7F147E001204A775080C20A8
:1001730094147F147E001204A73094FD7F147E0034
:080183001204A7750810AF0873
:01018B002251
:030000000202DF1A
:0C02DF00787FE4F6D8FD75812602032626
:10024B00BB010CE58229F582E5833AF583E0225068
:10025B0006E92582F8E622BBFE06E92582F8E222B2
:0D026B00E58229F582E5833AF583E49322CC
:10027800EF8DF0A4A8F0CF8CF0A428CE8DF0A42E9A
:02028800FE2254
:10028A00BC000BBE0029EF8DF084FFADF022E4CC58
:10029A00F875F008EF2FFFEE33FEEC33FCEE9DEC21
:1002AA00984005FCEE9DFE0FD5F0E9E4CEFD22ED67
:1002BA00F8F5F0EE8420D21CFEADF075F008EF2FB1
:1002CA00FFED33FD4007985006D5F0F222C398FDA2
:0502DA000FD5F0EA223F
:1002EB0002018CE493A3F8E493A34003F68001F29C
:1002FB0008DFF48029E493A3F85407240CC8C33314
:10030B00C4540F4420C8834004F456800146F6DFE2
:10031B00E4800B010204081020408090050FE47E5E
:10032B00019360BCA3FF543F30E509541FFEE493D7
:10033B00A360010ECF54C025E060A840B8E493A39E
:10034B00FAE493A3F8E493A3C8C582C8CAC583CAC9
:10035B00F0A3C8C582C8CAC583CADFE9DEE780BE81
:01051A0000E0
:00000001FF
