:0300DC00010A0016
:1000BF001200A8AF0A1200D2050A7FE87E031200D1
:0300CF008F80F02F
:0A008F00EF1FAC0670011E4C600E5E
:0C0099007508027509EFD509FDD508FABD
:0300A50080E822CE
:1000A80053877F75985053890F438920758BFA754C
:0700B8008DFAC2ABD28E22CB
:0A00D2008F99309904C29980F92239
:03000000020003F8
:0C000300787FE4F6D8FD75810A02004AFF
:10000F000200BFE493A3F8E493A34003F68001F248
:10001F0008DFF48029E493A3F85407240CC8C333F2
:10002F00C4540F4420C8834004F456800146F6DFC1
:10003F00E4800B01020408102040809000DCE47E75
:10004F00019360BCA3FF543F30E509541FFEE493B6
:10005F00A360010ECF54C025E060A840B8E493A37D
:10006F00FAE493A3F8E493A3C8C582C8CAC583CAA8
:10007F00F0A3C8C582C8CAC583CADFE9DEE780BE60
:0100DF000020
:00000001FF
