:100168001201EC7512051201078F13E51364017073
:10017800230515531503E5157002F512E515B401AD
:1001880003751232E515B4020375124BE515B40375
:100198000375125AE515FD7C007F0112009A80C68E
:03000B000201A847
:1001A800C0E0C0F0C0D0758AA4758CFF0514E514B2
:1001B80075F0648485F014E514C395125004D29048
:0B01C8008002C290D0D0D0F0D0E03216
:0A01D300EF1FAC0670011E4C600E19
:0C01DD007517027518EFD518FDD517FA3C
:0301E90080E82289
:10010700E4F51620B1137F14FE1201D330B1FD7F41
:10011700147E001201D375160120B0147F147E00DF
:100127001201D330B0FD7F147E001201D375160281
:1001370020B2147F147E001201D330B2FD7F147EEB
:10014700001201D375160320B3147F147E00120129
:10015700D330B3FD7F147E001201D3751604AF169A
:010167002275
:0C0203000A083F065B4F666D7D077F6FA9
:10009A00EF14B4080050549000AF75F003A4C58360
:1000AA0025F0C583730200C70200CB0200CF02000D
:1000BA00D30200D70200DF0200E70200EFD2A480D9
:1000CA000ED2A48012D2A48016D2A4801AC2A4D2BC
:1000DA00A3D2A28016C2A4D2A3C2A2800EC2A4C274
:1000EA00A3D2A28006C2A4C2A3C2A274082DF8E6B3
:0D00FA00F5807F017E001201D3E4F5802225
:1001EC005389F0438901C28DD28C758AA4758CFF1A
:0701FC00D2A9D2AFC2B92263
:0300000002000EED
:0C000E00787FE4F6D8FD758118020055DB
:10001A00020168E493A3F8E493A34003F68001F293
:10002A0008DFF48029E493A3F85407240CC8C333E7
:10003A00C4540F4420C8834004F456800146F6DFB6
:10004A00E4800B0102040810204080900203E47E41
:10005A00019360BCA3FF543F30E509541FFEE493AB
:10006A00A360010ECF54C025E060A840B8E493A372
:10007A00FAE493A3F8E493A3C8C582C8CAC583CA9D
:10008A00F0A3C8C582C8CAC583CADFE9DEE780BE55
:01020F0000EE
:00000001FF
