:10035800414444522020434D4420204E554D003006
:0E036800302020202030302020203030300087
:1001EA001203DC7BFF7A0379587D017F0112033504
:1001FA007BFF7A0379677D017F0212033512046E51
:10020A0012040FEF60FA1204748F2B1204778F2AEC
:10021A00E52BFB7A007518027D017F02120291E537
:10022A002AFB7A007518027D077F02120291E52ADD
:10023A00B415021529E52AB409020529E529FB7A2C
:0D024A00007518037D0C7F0212039480B331
:1003C700EF1FAC0670011E4C600A7D027CEFDCFE5D
:0403D700DDFC80ECDD
:0103DB0022FF
:06040000C2A58F80D2A707
:080406007F027EEFDEFEDFFC49
:01040E0022CB
:0A044B00C2A6120400C2A7020406B4
:10037600CFCDCFCECCCE1201957C007D0A12019551
:04038600ED2430FF33
:0A038A00D2A6120400C2A702040666
:1003B100AE07BE0104ED148006BE0209ED243F44E0
:0603C10080FF12044B2234
:1003DC007F3812044B7F0C12044B7F0612044B7FA8
:0403EC000102044BBB
:0A045500AC031203B1AF0402038AE6
:060335008B148A158916E5
:10033B001203B1E4FDAB14AA15A9168D82758300C7
:0C034B00120156FF600612038A0D80E9C3
:010357002283
:0C0302007F0AEA24FFFDE434FFFC7E00CB
:08030E008E198F1A8C1B8D1C47
:100316007F017E00E4FBEBC3951CE51B6480F8744B
:0E0326008098500AAC19AD1A1201830B80E8C2
:0103340022A6
:040394008A168B1723
:100398001203B1AA18EAD39400400D120302AC1656
:0803A800AD171203761A80ED77
:0103B000222A
:100257001203B1C3EA64809480400B7F2B12038A98
:100267008A228B23800E7F2D12038AC3E49BF523FA
:10027700E49AF522AA21EAD39400400D120302ACB6
:0902870022AD231203761A80ED6A
:01029000224B
:040291008A168B1727
:100295001203B1AA18EAD3940040297F101203046F
:1002A500AC16AD17CFCDCFCECCCE120195EF540FF6
:1002B500FEC3940AEE5004243080022437FF120353
:0402C5008A1A80D140
:0102C9002212
:0402CA008A268B27CE
:1002CE001203B1AA28EAD394004028EA24FFFDE4E1
:1002DE0034FFFC7F027E0012030EAC26AD27CFCD7D
:1002EE00CFCECCCE120195EF54012430FF12038AEB
:0302FE001A80D291
:0103010022D9
:0B043500D288C289D2A8D2AFD2B82270
:1003F0005389F0438901E4F58AF58CC28DC28C22C1
:0B044000AD07AC068C8CAF058F8A2244
:09045F00AF8CEFFEAD8AEDFF2227
:06046800EF24FF928C223C
:06046E001203F002043548
:0D040F00E50F6006E4F50F7F01227F00225B
:0D041C00E50D6006E4F50D7F01227F002252
:03047400AF0C22A8
:03047700AF0B22A6
:03000300020006F2
:10000600C0E0C0F0C083C082C0D075D000C000C0C0
:1000160001C002C003C004C005C006C007E50870E1
:100026000CFFFE1204407F01120468804BE5086451
:1000360001704B12045F8E098F0AE4FFFE12044022
:10004600C3E50A94E0E509942E4011D3E50A949895
:10005600E509943A500675080202013BC3E50A9485
:1000660016E50994264011D3E50A94CEE5099431A4
:100076005006750D0102013375080102013BE508C2
:100086006402600302013B12045F8E098F0AE4FFDB
:10009600FE120440C3E50A946CE5099402402DD390
:1000A600E50A9454E50994065022E50E13131354F9
:1000B6001F2410F8C000E6FFE50E5407FE7401A8E1
:1000C60006088002C333D8FCF45F8035C3E50A9482
:1000D600D6E50994064031D3E50A94BEE509940AAB
:1000E6005026E50E131313541F2410F8C000E6FF24
:1000F600E50E5407FE7401A806088002C333D8FC37
:100106004FD000F6050E8006750E00750801E50E47
:10011600C394204020750E00E511F4B5100FE513C9
:10012600F4B5120985100C85120B750F01E4FF1248
:100136000468750800D007D006D005D004D003D0D7
:1001460002D001D000D0D0D082D083D0F0D0E0321F
:03000000020429CE
:0C042900787FE4F6D8FD75812B0201EA13
:10015600BB010CE58229F582E5833AF583E022505E
:1001660006E92582F8E622BBFE06E92582F8E222A8
:0D017600E58229F582E5833AF583E49322C2
:10018300EF8DF0A4A8F0CF8CF0A428CE8DF0A42E90
:02019300FE224A
:10019500BC000BBE0029EF8DF084FFADF022E4CC4E
:1001A500F875F008EF2FFFEE33FEEC33FCEE9DEC17
:1001B500984005FCEE9DFE0FD5F0E9E4CEFD22ED5D
:1001C500F8F5F0EE8420D21CFEADF075F008EF2FA7
:1001D500FFED33FD4007985006D5F0F222C398FD98
:0501E5000FD5F0EA2235
:00000001FF
