:05001E0012000380FE4A
:03002300020026B2
:10002600C0E0C0F0C083C082C0D075D000C000C0A0
:1000360001C002C003C004C005C006C00730980C4A
:10004600E599F4F5A0AF99120092C298D007D006B0
:10005600D005D004D003D002D001D000D0D0D082B9
:07006600D083D0F0D0E0329E
:0A006D00EF1FAC0670011E4C600E80
:0C0077007508027509EFD509FDD508FADF
:0300830080E822F0
:1000030053877F75985053890F438920758BFA75F1
:0B0013008DFAC2ABD28ED2AFD2AC226D
:0A0092008F99309904C29980F92279
:0300000002008675
:0C008600787FE4F6D8FD75810902001EA9
:00000001FF
