:10030E005772697465204F4B210020202020202039
:10031E002020200052656164204F4B2100202020B8
:06032E0020202020200029
:10000300120403750C05AB23AA227D017F011203A1
:10001300B71201768F24E524B401150523E5237077
:10002300020522750C05FBAA227D017F011203B78D
:10003300E524B40216E523152370021522750C0579
:10004300AB23AA227D017F011203B7E52464037069
:1000530040FCAD23FF1203347F057E001203D4E579
:1000630022FD7C007F011203347F057E001203D43E
:100073007BFF7A03790E7D017F021203587FE87EAE
:10008300031203D47BFF7A0379187D017F021203E5
:1000930058E52464046003020014FF1202B57522BC
:1000A300008F237F011202B5EFFEEE4222750C058D
:1000B300AB23AA227D017F011203B77BFF7A037969
:1000C300227D017F021203587FE87E031203D47B53
:0F00D300FF7A03792B7D017F021203580200147C
:0A03D400EF1FAC0670011E4C600E16
:0C03DE00750902750AEFD50AFDD509FA71
:0303EA0080E82286
:10017600E4F50820B1137F14FE1203D430B1FD7FDD
:10018600147E001203D475080120B0147F147E007B
:100196001203D430B0FD7F147E001203D47508021A
:1001A60020B2147F147E001203D430B2FD7F147E79
:1001B600001203D475080320B3147F147E001203C3
:1001C600D430B3FD7F147E001203D4750804AF0843
:0101D6002206
:06041700C2A58F80D2A7F0
:08041D007F027EEFDEFEDFFC32
:0104250022B4
:0A043E00C2A6120417C2A702041D93
:10037B00CFCDCFCECCCE1201217C007D0A12012134
:04038B00ED2430FF2E
:0A038F00D2A6120417C2A702041D33
:1003ED00AE07BE0104ED148006BE0209ED243F44A4
:0603FD0080FF12043E2205
:100403007F3812043E7F0C12043E7F0612043E7FA7
:040413000102043EA0
:0A044800AC031203EDAF0402038FB2
:060358008B088A09890AE6
:10035E001203EDE4FDAB08AA09A90A8D827583008C
:0C036E001200E2FF600612038F0D80E910
:01037A002260
:0C0282007F0AEA24FFFDE434FFFC7E004C
:08028E008E0D8F0E8C0F8D10F8
:100296007F017E00E4FBEBC39510E50F6480F874E4
:0E02A6008098500AAC0DAD0E12010F0B80E8CF
:0102B4002227
:0403B7008A0A8B0B18
:1003BB001203EDAA0CEAD39400400D120282AC0A90
:0803CB00AD0B12037B1A80ED5B
:0103D3002207
:1001D7001203EDC3EA64809480400B7F2B12038FD8
:1001E7008A168B17800E7F2D12038FC3E49BF5179A
:1001F700E49AF516AA15EAD39400400D120282ACD0
:0902070016AD1712037B1A80EDFD
:0102100022CB
:040211008A1A8B1B9F
:100215001203EDAA1CEAD3940040297F1012028430
:10022500AC1AAD1BCFCDCFCECCCE120121EF540FE2
:10023500FEC3940AEE5004243080022437FF1203D3
:040245008F1A80D1BB
:010249002292
:04024A008A1F8B205C
:10024E001203EDAA21EAD394004028EA24FFFDE42C
:10025E0034FFFC7F027E0012028EAC1FAD20CFCD8C
:10026E00CFCECCCE120121EF54012430FF12038FDA
:03027E001A80D211
:01028100225A
:09045C00D2A0D2A1C2A0C2A122CB
:07046500C2A0D2A1D2A02227
:0202E500AD0763
:1002E700E4FB74807E00A803088006CEA2E713CE45
:1002F70013D8F8FFEDF582EF558224FF92A0D2A123
:06030700C2A10BBB08DCE3
:01030D0022CD
:10039900E4FFD2A0FED2A130A00D7480A806088087
:0D03A90002C313D8FC4207C2A10EBE08E833
:0103B6002224
:0A045200EF24FF92A0D2A1C2A12264
:0B042600D2A0D2A1A2A0E433FFC2A12B
:0104310022A8
:100334008F088C098D0A12045C7FA01202E5120456
:1003440026AF081202E5120426AF0A1202E51204CF
:040354002602046514
:0202B5008F08B0
:1002B70012045C7FA01202E5120426AF081202E5C1
:1002C70012042612045C7FA11202E512042612030F
:0D02D700998F097F01120452120465AF09CE
:0102E40022F7
:03000000020432C5
:0C043200787FE4F6D8FD758124020003F9
:1000E200BB010CE58229F582E5833AF583E02250D3
:1000F20006E92582F8E622BBFE06E92582F8E2221D
:0D010200E58229F582E5833AF583E4932236
:10010F00EF8DF0A4A8F0CF8CF0A428CE8DF0A42E04
:02011F00FE22BE
:10012100BC000BBE0029EF8DF084FFADF022E4CCC2
:10013100F875F008EF2FFFEE33FEEC33FCEE9DEC8B
:10014100984005FCEE9DFE0FD5F0E9E4CEFD22EDD1
:10015100F8F5F0EE8420D21CFEADF075F008EF2F1B
:10016100FFED33FD4007985006D5F0F222C398FD0C
:050171000FD5F0EA22A9
:00000001FF
