:1000C30075A0FE1200FC12000E8F0AE50A60F7B459
:1000D30001F4050BE50BC3940240EBE4F50B80E65A
:03000B0002006F81
:0B006F00C0E0C0D075D000C000C0078A
:10007A00758A66758CFC0509E50970020508C39442
:10008A00F4E50894014029750800750900E50B702C
:10009A000DAFA07801EF08800123D8FDF5A0E50B8C
:1000AA00B4010DAFA07801EF08800103D8FDF5A0D7
:0900BA00D007D000D0D0D0E03214
:1000FC005389F0438901C28DD28C758A66758CFC4C
:07010C00D2A9D2AFC2B92253
:10000E00E4F50C20B1137F14FE1200E330B1FD7F36
:10001E00147E001200E3750C0120B0147F147E00D4
:10002E001200E330B0FD7F147E001200E3750C0267
:10003E0020B2147F147E001200E330B2FD7F147ED6
:10004E00001200E3750C0320B3147F147E0012001F
:10005E00E330B3FD7F147E001200E3750C04AF0C89
:01006E00226F
:0A00E300EF1FAC0670011E4C600E0A
:0C00ED00750D02750EEFD50EFDD50DFA55
:0300F90080E8227A
:03000000020113E7
:0C011300787FE4F6D8FD75810E0200C371
:00000001FF
