:0B0462004D61747269784B65793A00B7
:0304810001220055
:10038A0012043F7BFF7A0479627D017F011203B276
:10039A001200038F22E52260F7FB7A00750C027DBA
:0803AA00017F021203F380E859
:0A041000EF1FAC0670011E4C600ED9
:0C041A00750902750AEFD50AFDD509FA34
:0304260080E82249
:06045300C2A58F80D2A7B4
:080459007F027EEFDEFEDFFCF6
:010461002278
:0A046D00C2A6120453C2A7020459EC
:1003D500CFCDCFCECCCE1201CB7C007D0A1201CB86
:0403E500ED2430FFD4
:0A03E900D2A6120453C2A702045961
:10042900AE07BE0104ED148006BE0209ED243F4467
:0604390080FF12046D2299
:10043F007F3812046D7F0C12046D7F0612046D7FDE
:04044F000102046D35
:0A047700AC03120429AF040203E9EC
:0603B2008B088A09890A8C
:1003B800120429E4FDAB08AA09A90A8D82758300F5
:0C03C80012018CFF60061203E90D80E9B1
:0103D4002206
:0C0357007F0AEA24FFFDE434FFFC7E0076
:080363008E0D8F0E8C0F8D1022
:10036B007F017E00E4FBEBC39510E50F6480F8740E
:0E037B008098500AAC0DAD0E1201B90B80E84F
:010389002251
:0403F3008A0A8B0BDC
:1003F700120429AA0CEAD39400400D120357AC0A41
:08040700AD0B1203D51A80EDC4
:01040F0022CA
:1002AC00120429C3EA64809480400B7F2B1203E96B
:1002BC008A168B17800E7F2D1203E9C3E49BF5176A
:1002CC00E49AF516AA15EAD39400400D120357AC24
:0902DC0016AD171203D51A80EDCE
:0102E50022F6
:0402E6008A1A8B1BCA
:1002EA00120429AA1CEAD3940040297F1012035948
:1002FA00AC1AAD1BCFCDCFCECCCE1201CBEF540F63
:10030A00FEC3940AEE5004243080022437FF1203FD
:04031A00E91A80D18B
:01031E0022BC
:04031F008A1F8B2086
:10032300120429AA21EAD394004028EA24FFFDE419
:1003330034FFFC7F027E00120363AC1FAD20CFCDE0
:10034300CFCECCCE1201CBEF54012430FF1203E900
:030353001A80D23B
:010356002284
:10000300E4F5087590FFC2932097137F14FE120442
:10001300103097FD7F147E0012041075080120969E
:10002300147F147E001204103096FD7F147E00129C
:1000330004107508052095147F147E0012041030F7
:1000430095FD7F147E001204107508092094147F17
:10005300147E001204103094FD7F147E00120410ED
:1000630075080D7590FFC2922097147F147E0012BD
:1000730004103097FD7F147E0012041075080220CF
:1000830096147F147E001204103096FD7F147E00B8
:100093001204107508062095147F147E00120410B4
:1000A3003095FD7F147E0012041075080A20941405
:1000B3007F147E001204103094FD7F147E0012041E
:1000C3001075080E7590FFC2912097147F147E005F
:1000D3001204103097FD7F147E001204107508037C
:1000E3002096147F147E001204103096FD7F147E38
:1000F300001204107508072095147F147E00120463
:10010300103095FD7F147E0012041075080B2094A7
:10011300147F147E001204103094FD7F147E0012AD
:10012300041075080F7590FFC2902097147F147EFA
:10013300001204103097FD7F147E0012041075081E
:10014300042096147F147E001204103096FD7F1451
:100153007E001204107508082095147F147E001287
:1001630004103095FD7F147E0012041075080C20D6
:1001730094147F147E001204103094FD7F147E00CB
:08018300120410750810AF080A
:01018B002251
:03000000020220D9
:0C022000787FE4F6D8FD758122020267A9
:10018C00BB010CE58229F582E5833AF583E0225028
:10019C0006E92582F8E622BBFE06E92582F8E22272
:0D01AC00E58229F582E5833AF583E493228C
:1001B900EF8DF0A4A8F0CF8CF0A428CE8DF0A42E5A
:0201C900FE2214
:1001CB00BC000BBE0029EF8DF084FFADF022E4CC18
:1001DB00F875F008EF2FFFEE33FEEC33FCEE9DECE1
:1001EB00984005FCEE9DFE0FD5F0E9E4CEFD22ED27
:1001FB00F8F5F0EE8420D21CFEADF075F008EF2F71
:10020B00FFED33FD4007985006D5F0F222C398FD61
:05021B000FD5F0EA22FE
:10022C0002038AE493A3F8E493A34003F68001F25B
:10023C0008DFF48029E493A3F85407240CC8C333D3
:10024C00C4540F4420C8834004F456800146F6DFA2
:10025C00E4800B0102040810204080900481E47EAD
:10026C00019360BCA3FF543F30E509541FFEE49397
:10027C00A360010ECF54C025E060A840B8E493A35E
:10028C00FAE493A3F8E493A3C8C582C8CAC583CA89
:10029C00F0A3C8C582C8CAC583CADFE9DEE780BE41
:010484000077
:00000001FF
