:10008E00FF080808FF1C2A2A2A18FF0102FF010296
:10009E007E81817E00FD0000000000000000000057
:10000300E4F50A1200D3E4F508E508250990008E0B
:1000130093FD7C00AF0812006C0508E508C3940843
:1000230040E7050AE50AD3940A40DBE4F50A05092B
:0C003300E509D3941840CFE4F50980CA19
:0A00AE00EF1FAC0670011E4C600E3F
:0C00B800750B02750CEFD50CFDD50BFA92
:0300C40080E822AF
:02003F00AD070B
:10004100E4FB74807E00A803088006CEA2E713CEED
:1000510013D8F8FFEDF582EF558224FF92B4D2B6A2
:0A006100C2B60BBB08DCD2B5C2B575
:01006B002272
:10006C00AA07AF0512003FAF027480A807088002F0
:10007C00C313D8FCF4F5807F017E001200AE7580AE
:02008C00FF2251
:0500D300C2B6C2B52217
:030000000200C734
:0C00C700787FE4F6D8FD75810C02000380
:00000001FF
