:100267001203D71203C512038CEF604B1203D48F0E
:100277001EE51EB41603E4F51FE51EB40C03751F37
:1002870001E51EB41803751F02E51EB45E03751F52
:1002970003E51F7004FF1203DAE51FB401057F327F
:1002A7001203DAE51FB402057F4B1203DAE51FB428
:1002B70003057F5A1203DAE51FFD7C007F01120157
:0302C700FA80A317
:0A035600EF1FAC0670011E4C600E94
:0C0360007522027523EFD523FDD522FA8B
:03036C0080E82204
:1002CA00E4F52420B1137F14FE12035630B1FD7FEA
:1002DA00147E0012035675240120B0147F147E0088
:1002EA0012035630B0FD7F147E00120356752402A5
:1002FA0020B2147F147E0012035630B2FD7F147EA2
:10030A000012035675240320B3147F147E001203CF
:10031A005630B3FD7F147E00120356752404AF24B1
:01032A0022B0
:0C037F000A143F065B4F666D7D077F6F20
:1001FA00EF14B40800505490020F75F003A4C5839D
:10020A0025F0C5837302022702022B02022F020283
:10021A003302023702023F02024702024FD2A4808F
:10022A000ED2A48012D2A48016D2A4801AC2A4D25A
:10023A00A3D2A28016C2A4D2A3C2A2800EC2A4C212
:10024A00A3D2A28006C2A4C2A3C2A274142DF8E645
:0D025A00F5807F017E00120356E4F580223E
:1000060053890FC28FD28E758BA4758DFFD2ABD25A
:04001600AFC2BB2298
:0B03A600D288C289D2A8D2AFD2B82200
:0603C50012036F0203A603
:0D038C00E50F6006E4F50F7F01227F0022DF
:0D039900E50D6006E4F50D7F01227F0022D6
:0303D100AF0C224C
:0303D400AF0B224A
:0300030002001EDA
:10001E00C0E0C0F0C083C082C0D075D000C000C0A8
:10002E0001C002C003C004C005C006C007E50870C9
:10003E000CFFFE1203B17F011203CB804BE5086467
:10004E0001704B1203BC8E098F0AE4FFFE1203B13E
:10005E00C3E50A94E0E509942E4011D3E50A94987D
:10006E00E509943A5006750802020153C3E50A9455
:10007E0016E50994264011D3E50A94CEE50994318C
:10008E005006750D0102014B750801020153E5087A
:10009E00640260030201531203BC8E098F0AE4FF4F
:1000AE00FE1203B1C3E50A946CE5099402402DD308
:1000BE00E50A9454E50994065022E50E13131354E1
:1000CE001F2410F8C000E6FFE50E5407FE7401A8C9
:1000DE0006088002C333D8FCF45F8035C3E50A946A
:1000EE00D6E50994064031D3E50A94BEE509940A93
:1000FE005026E50E131313541F2410F8C000E6FF0C
:10010E00E50E5407FE7401A806088002C333D8FC1E
:10011E004FD000F6050E8006750E00750801E50E2F
:10012E00C394204020750E00E511F4B5100FE513B1
:10013E00F4B5120985100C85120B750F01E4FF1230
:10014E0003CB750800D007D006D005D004D003D05D
:10015E0002D001D000D0D0D082D083D0F0D0E03207
:10036F005389F0438901E4F58AF58CC28DC28C2242
:0B03B100AD07AC068C8CAF058F8A22D4
:0903BC00AF8CEFFEAD8AEDFF22CB
:0603CB00EF24FF928C22DA
:0303D7000200061B
:0303DA008F20224F
:03001B0002032BB2
:10032B00C0E0C0F0C0D0758BA4758DFF0521E52111
:10033B0075F0648485F021E521C395205004D2909B
:0B034B008002C290D0D0D0F0D0E03291
:0300000002016E8C
:0C016E00787FE4F6D8FD7581240201B50D
:10017A00020267E493A3F8E493A34003F68001F232
:10018A0008DFF48029E493A3F85407240CC8C33386
:10019A00C4540F4420C8834004F456800146F6DF55
:1001AA00E4800B010204081020408090037FE47E63
:1001BA00019360BCA3FF543F30E509541FFEE4934A
:1001CA00A360010ECF54C025E060A840B8E493A311
:1001DA00FAE493A3F8E493A3C8C582C8CAC583CA3C
:1001EA00F0A3C8C582C8CAC583CADFE9DEE780BEF4
:01038B000071
:00000001FF
